:0509FD00030800000DDD
:0C09F100758920758DFC759850D28E22FF
:03002300020900CF
:10090000C0E0C083C082C0D075D000C001C002C0AA
:100910000330981AAB08AA09A90AE5991209967436
:1009200001250AF50AE43509F509C29880053099D0
:1009300002C299D003D002D001D0D0D082D083D0CF
:02094000E032A3
:10088C00ED4C7004C2808002D2808F0BC281D28268
:10089C00AE0BAF0CEEC41313135401139287AE0BB3
:1008AC00AF0CEEC413135403139286AE0BAF0CEEC5
:1008BC00C4135407139285AE0BAF0CEEC4540F1334
:1008CC009284C282D282AE0BAF0CEE131313541F60
:1008DC00139287AE0BAF0CEE1313543F139286AEEC
:1008EC000BAF0CEEC313139285AE0BAF0CEE139241
:0408FC0084C282220E
:1009A8008B218A228923AB21AA22A92312097D60DF
:1009B800170523E5237002052214F912097DFF7D2E
:0909C800017C0012088C80DE2283
:03000300020942AD
:10094200C0E0C083C082C0D075D000C001C002C068
:1009520003C004C005C006C007C2A87B007A0079A4
:100962000D1209A8D007D006D005D004D003D002BA
:0B097200D001D0D0D082D083D0E03282
:1009D100E4FDFC7F0212088C7F0112088C7F0F025C
:0209E100088C80
:0E09E3001209D11209F1D2AFD2ACD2A880FE17
:03000000020800F3
:0C080000787FE4F6D8FD758123020847DC
:10097D00BB010689828A83E0225002E722BBFE0278
:09098D00E32289828A83E49322AB
:10099600BB010689828A83F0225002F722BBFE0140
:0209A600F3223A
:10080C000209E3E493A3F8E493A34003F68001F216
:10081C0008DFF48029E493A3F85407240CC8C333ED
:10082C00C4540F4420C8834004F456800146F6DFBC
:10083C00E4800B01020408102040809009FDE47E46
:10084C00019360BCA3FF543F30E509541FFEE493B1
:10085C00A360010ECF54C025E060A840B8E493A378
:10086C00FAE493A3F8E493A3C8C582C8CAC583CAA3
:10087C00F0A3C8C582C8CAC583CADFE9DEE780BE5B
:010A020000F3
:00000001FF
